:100000000C9431000C9446000C9446000C9446006D
:100010000C9446000C9446000C9446000C94460048
:100020000C9446000C9446000C9446000C94460038
:100030000C9446000C9446000C9446000C94460028
:100040000C9446000C9446000C9446000C94460018
:100050000C9446006D028802A302BE02D902F80287
:10006000170311241FBECFE5D8E0DEBFCDBF10E0DF
:10007000A0E6B0E0E4EAF6E002C005900D92A63DED
:10008000B107D9F70E944E020C9450030C94000063
:1000900087B1806C87B986B1876886B9089597B1B2
:1000A000907E8F71892B87B9369A349BFECF349A14
:1000B00084B125B190E0922B0895982F9770869582
:1000C00086958695813021F130F08230F1F18330D0
:1000D00009F458C00895613069F44BB321E030E071
:1000E000B90102C0660F771F9A95E2F7CB01842B06
:1000F0008BBB08954BB321E030E0B90102C0660F1D
:10010000771F9A95E2F7CB01809584238BBB0895E6
:10011000613069F448B321E030E0B90102C0660FF4
:10012000771F9A95E2F7CB01842B88BB089548B3DB
:1001300021E030E0B90102C0660F771F9A95E2F71F
:10014000CB018095842388BB0895613069F445B361
:1001500021E030E0B90102C0660F771F9A95E2F7FF
:10016000CB01842B85BB089545B321E030E0B90174
:1001700002C0660F771F9A95E2F7CB018095842322
:1001800085BB0895613069F442B321E030E0B901E4
:1001900002C0660F771F9A95E2F7CB01842B82BBD2
:1001A000089542B321E030E0B90102C0660F771F25
:1001B0009A95E2F7CB018095842382BB0895E0E60F
:1001C000F0E080E041E050E0282F2770982F9695CE
:1001D00096959695913009F130F09230C1F19330B7
:1001E00009F44FC067C09081913059F49AB3BA01B5
:1001F00002C0660F771F2A95E2F79B01292B2ABBC5
:1002000059C03AB3BA0102C0660F771F2A95E2F7C8
:10021000962F909593239ABB4DC09081913059F4BD
:1002200097B3BA0102C0660F771F2A95E2F79B01C8
:10023000292B27BB3FC037B3BA0102C0660F771F17
:100240002A95E2F7962F9095932397BB33C0908120
:10025000913059F494B3BA0102C0660F771F2A9502
:10026000E2F79B01292B24BB25C034B3BA0102C09D
:10027000660F771F2A95E2F7962F9095932394BBEC
:1002800019C09081913059F491B3BA0102C0660F40
:10029000771F2A95E2F79B01292B21BB0BC031B3B5
:1002A000BA0102C0660F771F2A95E2F7962F909544
:1002B000932391BB8F5F3296803209F085CF0895EA
:1002C000CF93C82F8BB38F709C2F907F892B8BBBC4
:1002D00060E089E00E945D0061E08BE00E945D00CB
:1002E0008FE891E00197F1F700C0000060E08BE03B
:1002F0000E945D008FE19EE40197F1F700C00000CD
:100300008BB3282F2F7030E1C39FC0011124822BA3
:100310008BBB60E089E00E945D0061E08BE00E94A1
:100320005D008FE891E00197F1F700C0000060E008
:100330008BE00E945D008FE39FE10197F1F700C021
:100340000000CF91089560E08AE00E945D002FEFE9
:1003500089EF90E0215080409040E1F700C000001C
:1003600083E30E9460018FE193E00197F1F700C001
:10037000000082E30E94600188E20E94600186E042
:100380000E9460018CE00E94600181E00E94600197
:100390008FE39FE10197F1F700C000000895CF932C
:1003A000C82F8BB38F709C2F907F892B8BBB61E004
:1003B00089E00E945D0061E08BE00E945D008FE8B3
:1003C00091E00197F1F700C0000060E08BE00E942F
:1003D0005D008FE19EE40197F1F700C000008BB350
:1003E000282F2F7030E1C39FC0011124822B8BBBBB
:1003F00061E089E00E945D0061E08BE00E945D00A9
:100400008FE891E00197F1F700C0000060E08BE019
:100410000E945D008FE39FE10197F1F700C00000AB
:10042000CF9108950F931F93CF93FC018081882370
:1004300059F08F01C0E00E94CF01CF5FF801EC0FAF
:10044000F11D80818111F7CFCF911F910F910895F8
:10045000CF93DF93EC01613019F0623051F011C09D
:10046000842F8F7080680E946001CE010E9412026A
:1004700008C0842F8F70806C0E946001CE010E94A2
:100480001202DF91CF91089581E00E944F0096956E
:100490008795969587950E94450308950E94DF00F1
:1004A0000E94A30181E00E9432030E94480088EC70
:1004B00090E09BBD8ABD81E88FBD8AE08EBD8BE058
:1004C0000E94450390E0FC013197E730F10508F008
:1004D000C6C0E65DFF4F0C944A0380EA90E00E949C
:1004E000120240E062E088EB90E00E94280261E0A6
:1004F00080E10E945D002FEF83ED90E3215080406A
:100500009040E1F700C0000081E00E946001A7C0B8
:1005100080EA90E00E94120244E062E082ED90E006
:100520000E94280260E080E10E945D002FEF83EDD1
:1005300090E3215080409040E1F700C0000081E04E
:100540000E9460018CC089EA90E00E94120247E09C
:1005500062E088EB90E00E94280261E081E10E9465
:100560005D002FEF83ED90E3215080409040E1F754
:1005700000C0000081E00E94600171C089EA90E043
:100580000E94120247E062E082ED90E00E942802A1
:1005900060E081E10E945D002FEF83ED90E3215048
:1005A00080409040E1F700C0000081E00E946001BF
:1005B00056C082EB90E00E94120240E062E08BEBBA
:1005C00090E00E94280261E085E10E945D0060E009
:1005D00086E10E945D002FEF83ED90E32150804083
:1005E0009040E1F700C0000081E00E94600137C048
:1005F00082EB90E00E94120240E062E083EC90E027
:100600000E94280260E085E10E945D0061E086E1D1
:100610000E945D002FEF83ED90E3215080409040D9
:10062000E1F700C0000081E00E94600118C08CEC7E
:1006300090E00E94120260E085E10E945D0060E0AF
:1006400086E10E945D002FEF83ED90E32150804012
:100650009040E1F700C0000081E00E9460010E942C
:1006600044022DCF882319F0813049F0089587B3D3
:10067000806B87BBBE98C49A6C9A6E9A089587B3B4
:100680008F7487BBBE9A6E9A08958FB9779BFECF01
:100690008FB10895EE0FFF1F0590F491E02D09949E
:0406A000F894FFCFFC
:1006A4000101000101010101010101010101010137
:1006B4000101010101010101010101010101010126
:1006C4000101010101010101010101010101010116
:1006D4000101010101010101010101010101010106
:1006E4004C69676874732031004C696768747320BF
:1006F40032004D6F746F72204F4E00466F727761F7
:100704007264004261636B77617264004D6F746F51
:0607140072204F46460072
:00000001FF
